:100000000C9456000C9468000C9468000C946800E2
:100010000C9468000C9468000C9468000C946800C0
:100020000C9468000C9468000C9468000C946800B0
:100030000C9468000C9468000C9468000C946800A0
:100040000C9468000C9468000C9468000C94680090
:100050000C9468000C9468000C9468000C94680080
:100060000C9468000C9468000C9468000C94680070
:100070000C9468000C9468000C9468000C94680060
:100080000C9468000C9468000C9468000C94680050
:100090000C9479000C9468000C9468000C9468002F
:1000A0000C9468000C9468000C94680011241FBE26
:1000B000CFEFDAE0DEBFCDBF11E0A0E0B1E001C0DC
:1000C0001D92A932B107E1F70E94DF000C94FE00F7
:1000D0000C9400008093BA00ECEBF0E080818F7DFF
:1000E00080838081856480838FEF80930001789482
:1000F00008951F920F920FB60F9211248F939F9322
:10010000EF93FF938091B90090E0887F90708038E2
:100110009105A9F08138910524F480369105E9F51F
:1001200007C0883A910501F1883B9105B1F51CC0E3
:1001300085EC8093BC008FEF8093000131C09091DB
:10014000BB00809100018F3F41F4953118F49093EA
:10015000000123C01092000120C0E0910001F0E0F6
:10016000EB5EFE4F90830EC0809100018F3F11F433
:1001700010920001E0910001F0E0EF5FFE4F8081FE
:100180008093BB00809100018F5F8093000180917C
:100190000001833110F085E801C085EC8093BC003C
:1001A000FF91EF919F918F910F900FBE0F901F9035
:1001B0001895F89489E60E946A00789408950E9440
:1001C000D90088E580930201FFCF10927C009091C6
:1001D0007C009062982B90937C0080917A008568D7
:1001E00080937A0080917A00806480937A00809175
:1001F0007A0086FDFCCF809179000895F894FFCFB6
:00000001FF
